:020000040000FA
:100000000C9463000C948B000C948B000C942104D2
:100010000C9421040C9421040C948B000C948B0000
:100020000C948B000C948B000C948B000C948B0024
:100030000C948B000C948B000C948B000C948B0014
:100040000C947F030C948B000C94EF030C94C90365
:100050000C948B000C948B000C948B000C948B00F4
:100060000C948B000C948B000000000024002700EF
:100070002A0000000008000201000003040700003D
:1000800000000000000000000000230026002900FE
:1000900000000000250028002B00040404040404D0
:1000A0000404020202020202030303030303010227
:1000B00004081020408001020408102001020408F6
:1000C00010209904730711241FBECFEFD8E0DEBFC4
:1000D000CDBF11E0A0E0B1E0E4E4FFE002C0059094
:1000E0000D92AC3EB107D9F722E0ACEEB1E001C011
:1000F0001D92AA3FB207E1F710E0C2E6D0E004C0CB
:100100002197FE010E948F07C136D107C9F70E94CF
:1001100044050C9495070C94000090E0FC01EE5807
:10012000FF4F2491FC01E255FF4F3491FC01E6564C
:10013000FF4FE491EE23C9F0222339F0233001F17F
:10014000A8F4213019F1223029F1F0E0EE0FFF1F61
:10015000E057FF4FA591B4918FB7F894EC916111DE
:1001600026C030953E233C938FBF08952730A9F0D9
:100170002830C9F0243049F7809180008F7D03C07A
:10018000809180008F7780938000DFCF84B58F7758
:1001900084BDDBCF84B58F7DFBCF8091B0008F779E
:1001A0008093B000D2CF8091B0008F7DF9CF3E2BED
:1001B000DACFCF93DF9390E0FC01E255FF4F24911B
:1001C00086569F4FFC0184918823D1F090E0880FE0
:1001D000991FFC01E859FF4FA591B491FC01E0572C
:1001E000FF4FC591D49161110EC09FB7F8948C91C7
:1001F000E22FE0958E238C932881E223E8839FBF32
:10020000DF91CF9108958FB7F894EC91E22BEC93A6
:100210008FBFF6CF1F93CF93DF93182FEB0161E0D1
:100220000E94D900209739F460E0812FDF91CF91AF
:100230001F910C948D00CF3FD10511F461E0F5CFF3
:10024000E12FF0E0EE58FF4FE491E33031F140F45C
:10025000E130B1F0E230E1F0C038D1057CF7E4CF15
:10026000E73029F1E83059F1E430B1F780918000AE
:10027000806280938000D0938B00C0938A0004C07A
:1002800084B5806884BDC7BDDF91CF911F9108956B
:1002900084B5806284BDC8BDF7CF8091800080683E
:1002A00080938000D0938900C0938800EDCF809127
:1002B000B00080688093B000C093B300E5CF809118
:1002C000B00080628093B000C093B400DDCF3FB730
:1002D000F89480913A0290913B02A0913C02B09137
:1002E0003D0226B5A89B05C02F3F19F00196A11D20
:1002F000B11D3FBFBA2FA92F982F8827BC01CD0170
:10030000620F711D811D911D42E0660F771F881FCE
:10031000991F4A95D1F70895AF92BF92CF92DF927D
:10032000EF92FF920F931F93CF93DF936C017B01AA
:100330008B01040F151FEB015E01AE18BF08C0173B
:10034000D10759F06991D601ED91FC910190F081AE
:10035000E02DC6010995892B79F7C501DF91CF9171
:100360001F910F91FF90EF90DF90CF90BF90AF90D3
:100370000895FC01538D448D252F30E0842F90E0AB
:10038000821B930B541710F0CF9608950197089590
:10039000FC01918D828D981761F0A28DAE0FBF2F59
:1003A000B11D5D968C91928D9F5F9F73928F90E0AF
:1003B00008958FEF9FEF0895FC01918D828D98171E
:1003C00031F0828DE80FF11D858D90E008958FEF5B
:1003D0009FEF0895FC01918D228D892F90E0805C24
:1003E0009F4F821B91098F73992708958EE392E0A6
:1003F0000E94EA0121E0892B09F420E0822F089570
:1004000080E090E0892B29F00E94F60181110C9484
:1004100000000895FC01A48DA80FB92FB11DA35AA7
:10042000BF4F2C91848D90E001968F739927848F14
:10043000A689B7892C93A089B1898C918370806437
:100440008C93938D848D981306C00288F389E02DD8
:1004500080818F7D80830895EF92FF920F931F9389
:10046000CF93DF93EC0181E0888F9B8D8C8D981367
:100470001AC0E889F989808185FF15C09FB7F89473
:10048000EE89FF896083E889F989808183708064BF
:1004900080839FBF81E090E0DF91CF911F910F910A
:1004A000FF90EF900895F62E0B8D10E00F5F1F4F19
:1004B0000F731127E02E8C8D8E110CC00FB607FC28
:1004C000FACFE889F989808185FFF5CFCE010E94B6
:1004D0000A02F1CFEB8DEC0FFD2FF11DE35AFF4F18
:1004E000F0829FB7F8940B8FEA89FB898081806244
:1004F000CFCFCF93DF93EC01888D8823B9F0AA8901
:10050000BB89E889F9898C9185FD03C0808186FDCE
:100510000DC00FB607FCF7CF8C9185FFF2CF80811D
:1005200085FFEDCFCE010E940A02E9CFDF91CF9186
:10053000089520912E0230912F022817390771F467
:1005400090912C0280912D02981741F0E0912C029D
:10055000F0E0E451FE4F808190E008958FEF9FEF2F
:1005600008950895EF92FF920F931F93CF93DF9317
:10057000DC015C96ED90FC905D97E114F10479F458
:1005800081E090E013969C938E93129790E080E028
:10059000DF91CF911F910F91FF90EF9008955196A9
:1005A000ED91FC91529750968C915097982F909581
:1005B0000FB75E962C915E97122F127021FD6095F9
:1005C000F8942081112319F1282B2083E70121972A
:1005D000F1F728E0462F50E0308160FF1AC0382B39
:1005E0003083E7012197F1F7BA017595679521509E
:1005F00089F7112381F08081892380830FBF5C9666
:100600008D919C910197F1F781E090E0C1CF292372
:10061000DCCF3923E5CF9081892BEFCF20912E02BB
:1006200030912F022817390761F480912D02209113
:100630002C0290E0805C9F4F821B91098F73992759
:10064000089590E080E0089520912E0230912F02CD
:1006500028173907B9F490912C0280912D02981730
:1006600089F0E0912C02F0E0E451FE4F808120916E
:100670002C0230E02F5F3F4F2F73332720932C0243
:1006800090E008958FEF9FEF089590E080E0089547
:1006900060E087E00E948D0060E088E00E948D00AD
:1006A00070E060E085E00E940A0160E089E00E945D
:1006B0008D0060E08AE00E948D0070E060E086E0DE
:1006C0000C940A01CF93DF93FC0101900020E9F71D
:1006D0003197AF01481B590BBC018EE392E00E9499
:1006E0008C01EC0142E050E064E271E08EE392E0C4
:1006F0000E948C018C0F9D1FDF91CF9108951F9256
:100700000F920FB60F9211242F933F938F939F93C5
:10071000AF93BF938091360290913702A091380237
:10072000B09139023091350223E0230F2D3758F56F
:100730000196A11DB11D209335028093360290933E
:100740003702A0933802B093390280913A02909117
:100750003B02A0913C02B0913D020196A11DB11D4A
:1007600080933A0290933B02A0933C02B0933D02E7
:10077000BF91AF919F918F913F912F910F900FBE9D
:100780000F901F90189526E8230F0296A11DB11D0A
:10079000D2CF1F920F920FB60F9211242F933F9337
:1007A0004F935F936F937F938F939F93AF93BF9379
:1007B000EF93FF938EE392E00E940A02FF91EF9184
:1007C000BF91AF919F918F917F916F915F914F9169
:1007D0003F912F910F900FBE0F901F9018951F9271
:1007E0000F920FB60F9211242F938F939F93EF9335
:1007F000FF93E0914E02F0914F028081E09154020C
:10080000F091550282FD1BC09081809157028F5F4D
:100810008F7320915802821741F0E0915702F0E067
:10082000E25CFD4F958F80935702FF91EF919F916E
:100830008F912F910F900FBE0F901F901895808170
:10084000F4CF1F920F920FB60F9211242F933F9364
:100850004F935F936F937F938F939F93AF93BF93C8
:10086000EF93FF93E0912E02F0912F02309749F021
:10087000A685B7858585968D91FF14C09C918923A7
:10088000A1F4FF91EF91BF91AF919F918F917F91D3
:100890006F915F914F913F912F910F900FBE0F90ED
:1008A0001F9018959C91892361F7A389B4899C9125
:1008B0008589809589238C93868997890197F1F79B
:1008C000608D718DA685B785558538E020E0CB0118
:1008D0000197F1F7822F90E095958795282F4C91FD
:1008E000452309F02068315091F7868D81FD2095D0
:1008F00080912D0290E001968F73992730912C0200
:10090000381799F0A0912D02B0E0A451BE4F2C935E
:1009100080932D02828D938D0197F1F7A389B4897D
:100920008C919589892B8C93ACCF868D8160868F35
:10093000F1CF109241021092400288EE93E0A0E0C5
:10094000B0E08093420290934302A0934402B0939C
:10095000450224E031E030933F0220933E0225EC33
:1009600030E030934B0220934A0224EC30E0309385
:100970004D0220934C0220EC30E030934F02209344
:100980004E0221EC30E0309351022093500222ECD1
:1009900030E0309353022093520226EC30E0309343
:1009A000550220935402109257021092580210924E
:1009B000590210925A021092DE021092DD028093C8
:1009C000DF029093E002A093E102B093E20286E19D
:1009D00091E09093DC028093DB021092F20210927D
:1009E000F1021092F4021092F3021092F6021092A9
:1009F000F5021092F8021092F7026091F9026E7FF0
:100A00006D7F6093F9026695617081E0682783E0ED
:100A10000E948D0061E083E00E94D900E1EBF0E0EC
:100A2000E491E093EB02EDE9F0E0E491F0E0EE0F09
:100A3000FF1FE057FF4F859194919093ED028093B3
:100A4000EC0260E082E00E94D9008091F90281FD11
:100A500004C061E082E00E948D0082E08093E702A2
:100A6000E0EBF0E0E491E093E802ECE9F0E0E491FF
:100A7000F0E0EE0FFF1FEA57FF4F8591949190939E
:100A8000EA028093E9020895789484B5826084BD77
:100A900084B5816084BD85B5826085BD85B5816082
:100AA00085BD80916E00816080936E001092810000
:100AB00080918100826080938100809181008160BB
:100AC000809381008091800081608093800080917C
:100AD000B10084608093B1008091B0008160809308
:100AE000B00080917A00846080937A0080917A00CF
:100AF000826080937A0080917A00816080937A008E
:100B000080917A00806880937A001092C100E09111
:100B10004E02F0914F0282E08083E0914A02F09110
:100B20004B021082E0914C02F0914D028FEC8083D9
:100B300010925602E0915202F091530286E08083B7
:100B4000E0915002F0915102808180618083E091B8
:100B50005002F0915102808188608083E0915002C0
:100B6000F0915102808180688083E0915002F09181
:100B7000510280818F7D80831092F6021092F502DF
:100B80001092F4021092F3021092F2021092F1020B
:100B90008DE991E09093F8028093F7029091E7023B
:100BA000963108F047C02DEB30E03093F2022093ED
:100BB000F1022BE931E03093F4022093F3022CE2AE
:100BC00031E03093F6022093F5022091680084E032
:100BD000983048F031E09E3008F430E081E001C008
:100BE000880F3A95EAF7822B809368002DE630E073
:100BF000983050F02BE630E09E3030F02CE630E0BC
:100C0000963110F030E020E03093EF022093EE02B6
:100C1000292F30E0983008F0EBC081E001C0880F48
:100C20009A95EAF78093F0028091F7029091F8028A
:100C30000197F1F78091F5029091F602892B49F125
:100C4000E0912E02F0912F0222E0EB3DF20709F134
:100C5000309739F0A389B4899C918589809589233F
:100C60008C938091F9028E7F8093F90210922D026D
:100C700010922C028BED92E090932F0280932E0223
:100C8000E091EE02F091EF0280819091F002892BC9
:100C9000808361E085E00E94D90061E087E00E94E6
:100CA000D90061E088E00E94D90061E086E00E94FE
:100CB000D90061E089E00E94D90061E08AE00E94E9
:100CC000D90087E291E00E94620361E087E00E9420
:100CD0008D0061E088E00E948D0061E089E00E9463
:100CE0008D0061E08AE00E948D006FEF70E085E08A
:100CF0000E940A016FEF70E086E00E940A010E94E4
:100D000067014B015C0188EEC82E83E0D82EE12CF0
:100D1000F12C0E946701681979098A099B09683ECC
:100D2000734081059105A8F381E0C81AD108E10854
:100D3000F10828EE820E23E0921EA11CB11CC11402
:100D4000D104E104F10429F70E94480386E491E00C
:100D50000E94620383E791E00E94620300E010E0DA
:100D6000D1E08EE392E00E94EA01181619060CF019
:100D70007EC08EE392E00E94C801C82F2FB7F8947E
:100D80008091360290913702A0913802B0913902D9
:100D90002FBF8093300290933102A0933202B09320
:100DA000330280913402882331F089E891E00E9477
:100DB000620310923402C33509F492C0B4F5C6340C
:100DC000E1F14CF5C23409F056C060E087E00E94C2
:100DD0008D0061E088E00E948D006FEF70E085E09B
:100DE0000E940A0160E089E00E948D0061E037C046
:100DF0009E3040F42850310981E001C0880F2A95C7
:100E0000EAF710CF2E503109F7CF60E087E00E945B
:100E10008D0061E017C0CC34C1F3C23561F561E0EB
:100E200087E00E948D0060E0D5CFCC3671F30CF0E6
:100E300052C0C23651F2C636F1F461E087E00E943A
:100E40008D0060E088E00E948D006FEF70E085E02B
:100E50000E940A0161E089E00E948D0060E08AE062
:100E60000E948D006FEF70E086E00E940A01809181
:100E70003402811124C02FB7F894809136029091EA
:100E80003702A0913802B09139022FBF4091300251
:100E9000509131026091320270913302841B950BA4
:100EA000A60BB70B853F9140A105B10540F0D0934B
:100EB000340281EB91E00E9462030E944803011515
:100EC000110509F44ECF0E94F601882309F449CF99
:100ED0000E94000046CFC23709F4A1CFC33759F6AC
:100EE0000E944803C4CF86E191E09093DC02809396
:100EF000DB0280912E0290912F028B5D924071F463
:100F0000E091EE02F091EF0290818091F0028095E5
:100F10008923808310922F0210922E020895EE0FE3
:100F2000FF1F0590F491E02D099410E0C2E6D0E097
:100F300004C0FE010E948F072196C336D107C9F76E
:100F4000F894FFCF000000002C028C01B901790257
:100F5000EA01C801DC0100000000B2028C01450377
:100F6000B1020E03240399020D0A00506572666FE8
:100F7000726D696E672076697375616C204C4544AB
:100F800020636865636B2E2E2E00416E7469677254
:100F9000617669747920426C7565746F6F7468202E
:100FA00052432053797374656D20496E6974696189
:100FB0006C697A65642E0057616974696E67206692
:100FC0006F72207369676E616C2E2E2E00536967F5
:100FD0006E616C20726573746F7265642E20446953
:100FE00073656E676167696E67204661696C2D5332
:100FF0006166652E00435249544943414C3A20539F
:1010000069676E616C206C6F73742120456E676137
:1010100067696E67204661696C2D536166652E2095
:101020004D6F746F72732068616C7465642E00007C
:107E0000112484B714BE81FFF0D085E080938100F7
:107E100082E08093C00088E18093C10086E0809377
:107E2000C20080E18093C4008EE0C9D0259A86E02C
:107E300020E33CEF91E0309385002093840096BBD3
:107E4000B09BFECF1D9AA8958150A9F7CC24DD24C4
:107E500088248394B5E0AB2EA1E19A2EF3E0BF2EE7
:107E6000A2D0813461F49FD0082FAFD0023811F036
:107E7000013811F484E001C083E08DD089C08234E0
:107E800011F484E103C0853419F485E0A6D080C0E4
:107E9000853579F488D0E82EFF2485D0082F10E0AE
:107EA000102F00270E291F29000F111F8ED06801E7
:107EB0006FC0863521F484E090D080E0DECF843638
:107EC00009F040C070D06FD0082F6DD080E0C81688
:107ED00080E7D80618F4F601B7BEE895C0E0D1E017
:107EE00062D089930C17E1F7F0E0CF16F0E7DF06D8
:107EF00018F0F601B7BEE89568D007B600FCFDCFD4
:107F0000A601A0E0B1E02C9130E011968C91119780
:107F100090E0982F8827822B932B1296FA010C0160
:107F200087BEE89511244E5F5F4FF1E0A038BF0790
:107F300051F7F601A7BEE89507B600FCFDCF97BE46
:107F4000E89526C08437B1F42ED02DD0F82E2BD052
:107F50003CD0F601EF2C8F010F5F1F4F84911BD097
:107F6000EA94F801C1F70894C11CD11CFA94CF0C13
:107F7000D11C0EC0853739F428D08EE10CD085E9AC
:107F80000AD08FE07ACF813511F488E018D01DD067
:107F900080E101D065CF982F8091C00085FFFCCF94
:107FA0009093C60008958091C00087FFFCCF809118
:107FB000C00084FD01C0A8958091C6000895E0E648
:107FC000F0E098E1908380830895EDDF803219F02E
:107FD00088E0F5DFFFCF84E1DECF1F93182FE3DFCA
:107FE0001150E9F7F2DF1F91089580E0E8DFEE27F6
:047FF000FF270994CA
:027FFE00040479
:00000001FF
